:020000020000FC
:1000000012D02BD03ED051D0103009F002C01BD0FE
:10001000FACF113009F002C020D0F5CF123009F02C
:10002000F2CF25D0F0CF40E244B945B942E8409341
:1000300080004AE1409381005CE9509387005FE3D0
:1000400050938600089544274093260041E0409352
:10005000890044EF40938800089544274093260088
:100060004BE04093890048EB409388000895442773
:100070004093260041E14093890044E94093880081
:10008000089510E007E61093C5000093C40008E14E
:100090000093C10006E80093C20008950091C000DB
:1000A00005FFFCCF1093C60008950091C00007FF24
:0800B000FCCF1091C600089579
:00000001FF
